:020000040000FA
:040000002E282E2850
:08000800C0000308C1000A0852
:10001000C2008313831203138A0100000000000052
:10002000853081000B113314B00A3008F93C0318F5
:100030002828B0013414B10A3108033C03182828D9
:10004000B101B20A3208023C03182828B201351463
:1000500042088A0041088300400809008313031303
:100060008316023081004F309F008C0100308700E2
:100070008600FF308500831241309F008701860192
:10008000B001B1018A010830D4000730D300063036
:10009000D2000530D100D501B301A0308B008330F0
:1000A0008100551C6C2886015510300803398207E1
:1000B0005C286028642868285108860086176C2808
:1000C0005208860006176C285308860086166C288E
:1000D0005408860006166C28341CDC283410BE0137
:1000E0004E08BF0036083F0203187A280130BE00D0
:1000F0003608BF0037083F02031882280230BE00CE
:100100003708BF0038083F0203188A280330BE00B2
:100110003808BF0039083F02031892280430BE0097
:100120003908BF003A083F0203189A280530BE007C
:100130003A08BF003B083F020318A2280630BE0061
:100140003B08BF003C083F020318AA280730BE0046
:100150003C08BF004F083F020318B2280830BE0019
:100160004F08BF00CE01B601B701B801B901BA010D
:10017000BB01BC01CF013E088207C928CB28CD288E
:10018000CF28D128D328D528D728D9280000000087
:100190000000C50A5128C60A5128C70A5128C80AB2
:1001A0005128C90A5128CA0A5128CB0A5128CC0A19
:1001B0005128CD0A51285128351C60293510BE011F
:1001C0004508BF0046083F020318EA280130BE0078
:1001D0004608BF0047083F020318F2280230BE005D
:1001E0004708BF0048083F020318FA280330BE0042
:1001F0004808BF0049083F02031802290430BE0026
:100200004908BF004A083F0203180A290530BE000A
:100210004A08BF004B083F02031812290630BE00EF
:100220004B08BF004C083F0203181A290730BE00D4
:100230004C08BF004D083F02031822290830BE00B9
:100240004D08BF00C501C601C701C801C901CA01E7
:10025000CB01CC01CD0101308A003E0882073B2949
:100260003F29432947294B294F29532957295B29DE
:10027000000000000000003087008A015128013092
:1002800087008A015128023087008A0151280430F2
:1002900087008A015128083087008A0151281030D0
:1002A00087008A015128203087008A015128403078
:1002B00087008A015128003087008A01512851287F
:1002C000331C5128A729A7293D083E0784000008B0
:1002D000BF000800DD015F08DD0ADE0203186C299B
:1002E000DE07DD035D080800DD015E08633C0318DE
:1002F00085296430DE020A30DD075E08633C03189E
:1003000085296430DE020A30DD075E08313C0318BF
:100310008D293230DE020530DD075E081D3C0318F2
:1003200095291E30DE020330DD075E08093C031804
:10033000A5290A30DE020130DD075E08093C0318FA
:10034000A5290A30DE020130DD075D080800331000
:100350001F151F19A9296508E2006408E300E001E0
:10036000E1016308620EE000F039E1000F30E005C2
:10037000630E0F39E1076108E402031CE50360081E
:10038000E50283161E088312C039E3001E08E2004E
:10039000E001E1016308620EE000F039E1000F3096
:1003A000E005630E0F39E1076108E4070318E50A69
:1003B0006008E507DC016508F500F50A6408C73C3C
:1003C0000318E4297508E52965088B3C03183B2AC6
:1003D0006408F73C0318EE297508EF296508E83C26
:1003E000031C4B2A6408133C0318F8297508F929E3
:1003F0006508A33C0318492A6408653C0318022ACF
:100400007508032A6508AC3C0318472A6408B63C03
:1004100003180C2A75080D2A6508B53C0318452AEF
:100420006408083C0318162A7508172A6508BF3C9B
:100430000318432A6408593C0318202A7508212A06
:100440006508C83C0318412A6408543C03182A2A4A
:1004500075082B2A6508D63C03183F2A6408F73C28
:100460000318342A7508352A6508E83C03183D2A24
:10047000003087004D2ACE0A4D2ABC0A4D2ABB0AFD
:100480004D2ABA0A4D2AB90A4D2AB80A4D2AB70A86
:100490004D2AB60A4D2ACF0A4D2AB31C5128B31053
:1004A000E601E701E801E901F001F101E51F5C2A3D
:1004B0000230E6070530E707651F642A0130E607CA
:1004C0000230E7070530E807E51E6C2A0630E7072B
:1004D0000230E8070530E907651E762A0330E70792
:1004E0000130E8070230E9070530F007E51D822AF0
:1004F0000130E7070530E8070630E9070230F0076A
:100500000530F107651D8C2A0730E8070830E90738
:100510000130F0070230F107E51C962A0330E807A6
:100520000930E9070030F0070630F107651CA02A02
:100530000130E8070930E9070530F0070330F1071B
:10054000E41FA82A0930E9070730F0070730F10750
:10055000641FB02A0430E9070830F0070830F107BB
:100560000A30DF007108DE007421F0075E08F10038
:100570007008DE007421E9075E08F0006908DE00FB
:100580007421E8075E08E9006808DE007421E707C7
:100590005E08E8006708DE007421E6075E08E700F1
:1005A0006608D1006708D2006808D3006908D40043
:0405B0005128512855
:02400E00393F38
:00000001FF
